:020000040000FA
:060000000A128A110C280F
:10000800FE00030EF0000A08F1000A168A110A2CF5
:100018000A128A110F288313AE30FD001230FE0039
:10002800F330FF00A03084000A168A114B230A120D
:100038008A115D30FD001330FE009B30FF00433015
:1000480084000A168A114B230A128A112030840070
:1000580043300A168A11C5220A128A11FB01FA01D5
:1000680083010A128A15D82C5F2F0A128A15BC231D
:100078000A128A110A168A11D7250A128A110A1237
:100088008A15A4250A128A110A128A1512260A123A
:100098008A116C2F0A128A15BC230A128A11493058
:1000A800F2000030F3000A168A1154250A128A1148
:1000B800831203132A080A168A1109250A128A11BB
:1000C80083120313E7006708E0006E30E1008B300D
:1000D800E2002A08433E8400831300080A168A11A6
:1000E80008270A128A116030F2000030F3000A165D
:1000F8008A1154250A128A110B2D7B03031D8528AA
:1001080086289628013083120313E7006708B8078A
:100118003808803A763E031C922893289428B80120
:10012800FB01AD28831203132903031D9C289D2876
:10013800AD28FF30E7006708B807B81FA428A5282E
:10014800AA280930E7006708B800AA28A901AD283D
:10015800AD283808E70003300310E70DFF3E031D04
:10016800B0280310670D3704E8006808F600063069
:100178000A168A11A9250A128A11362D7B03031D36
:10018800C628C728D728013083120313E700670859
:10019800B7073708803A763E031CD328D428D528D9
:1001A800B701FB01EE28831203132903031DDD2881
:1001B800DE28EE28FF30E7006708B707B71FE528F5
:1001C800E628EB280930E7006708B700EB28A90103
:1001D800EE28EE283808E70003300310E70DFF3E4D
:1001E800031DF1280310670D3704E8006808F600BE
:1001F80006300A168A11A9250A128A11362D7B03A0
:10020800031D072908292A29013083120313E7004F
:100218006708B6073508803A7F3E031C142915295C
:100228001F293608803A7E3E031C1B291C292829D1
:10023800B601282928293608803A7D3E031C25293D
:1002480026292829B6012829FB01512983120313DD
:100258002903031D302931295129FF30E700670898
:10026800B6073508803A7F3E031C3B293C294429C0
:10027800B61F3F2940294E29B601B60A4E294E29F4
:10028800B61F472948294E290230E7006708B600FB
:100298004E294E29A901512951293608E700033072
:1002A8000310E70DFF3E031D54290310670D3504A5
:1002B800E8006808F60004300A168A11A9250A120F
:1002C8008A11362D7B03031D6A296B298B2901307E
:1002D80083120313E7006708B5073603031D752962
:1002E800762980293508803A7D3E031C7C297D29A2
:1002F8008929B501892989293508803A763E031C60
:10030800862987298929B5018929FB01B229831200
:1003180003132903031D91299229B229FF30E7000D
:100328006708B5073603031D9A299B29A529B51F18
:100338009E299F29AF290230E7006708B500AF2939
:10034800AF29B51FA829A929AF290930E7006708EF
:10035800B500AF29AF29A901B229B2293608E700AB
:1003680003300310E70DFF3E031DB5290310670D89
:100378003504E8006808F60004300A168A11A92531
:100388000A128A11362D7B03031DCB29CC29EE29AD
:10039800013083120313E7006708B4073308803A73
:1003A8007F3E031CD829D929E3293408803A7D3EA9
:1003B800031CDF29E029EC29B401EC29EC293408D5
:1003C800803A7C3E031CE929EA29EC29B401EC298E
:1003D800FB01172A831203132903031DF429F529A6
:1003E800172AFF30E7006708B4073308803A7F3ED2
:1003F800031CFF29002A0A2AB41F032A042A142AE4
:100408000230E7006708B400142A142AB41F0D2A22
:100418000E2A142A0330E7006708B400142A142AA5
:10042800A901172A172A3408E70003300310E70D3B
:10043800FF3E031D1A2A0310670D3304E8006808FD
:10044800F60003300A168A11A9250A128A11362DD8
:100458007B03031D302A312A522A013083120313E9
:10046800E7006708B30703303406031D3C2A3D2A1A
:10047800472A3308803A7D3E031C432A442A502ADF
:10048800B301502A502A3308803A763E031C4D2A7D
:100498004E2A502AB301502AFB01782A83120313EB
:1004A8002903031D582A592A782AFF30E7006708CC
:1004B800B30703303406031D622A632A6B2AB31F6D
:1004C800662A672A752AB301B30A752A752AB31FE3
:1004D8006E2A6F2A752A0930E7006708B300752A63
:1004E800752AA901782A782A3408E700033003100E
:1004F800E70DFF3E031D7B2A0310670D3304E80058
:100508006808F60003300A168A11A9250A128A110A
:10051800362D83120313E001E00A6C30E1008B30C2
:10052800E2000C300A168A1108270A128A117B0386
:10053800031D9F2AA02AB22A013083120313E70061
:100548006708B2073208803A783E031CAC2AAD2A05
:10055800B02AB201B20AB02AFB01C92A83120313D6
:100568002903031DB82AB92AC92AFF30E7006708FA
:10057800B207B21FC02AC12AC62A0730E700670897
:10058800B200C62AA901C92AC92A3208E7006708A1
:10059800F60005300A168A11A9250A128A11362D85
:1005A8007B03031DD82AD92AFB2A0130831203139F
:1005B800E7006708B1073008803A7B3E031CE52A4C
:1005C800E62AF02A3108803A7E3E031CEC2AED2AFE
:1005D800F92AB101F92AF92A3108803A7D3E031C2B
:1005E800F62AF72AF92AB101F92AFB01222B8312EC
:1005F80003132903031D012B022B222BFF30E700D5
:100608006708B1073008803A7B3E031C0C2B0D2B82
:10061800152BB11F102B112B1F2BB101B10A1F2B4A
:100628001F2BB11F182B192B1F2B0230E70067084F
:10063800B1001F2B1F2BA901222B222B3108E70009
:1006480003300310E70DFF3E031D252B0310670D34
:100658003004E8006808F60003300A168A11A92554
:100668000A128A11362D7B03031D3B2B3C2B5D2B75
:10067800013083120313E7006708B0070230310620
:10068800031D472B482B522B3008803A7B3E031C16
:100698004E2B4F2B5B2BB0015B2B5B2B3008803A2A
:1006A800763E031C582B592B5B2BB0015B2BFB01AF
:1006B800852B831203132903031D632B642B852BBE
:1006C800FF30E7006708B00702303106031D6D2BC5
:1006D8006E2B782BB01F712B722B822B0430E70006
:1006E8006708B000822B822BB01F7B2B7C2B822BC0
:1006F8000930E7006708B000822B822BA901852BFF
:10070800852B3108E70003300310E70DFF3E031D7A
:10071800882B0310670D3004E8006808F6000230E3
:100728000A168A11A9250A128A11362D7B03031D80
:100738009E2B9F2BC12B013083120313E700670800
:10074800AF072E08803A7F3E031CAB2BAC2BB62B91
:100758002F08803A7A3E031CB22BB32BBF2BAF0174
:10076800BF2BBF2B2F08803A793E031CBC2BBD2B17
:10077800BF2BAF01BF2BFB01EA2B83120313290305
:10078800031DC72BC82BEA2BFF30E7006708AF070C
:100798002E08803A7F3E031CD22BD32BDD2BAF1FB4
:1007A800D62BD72BE72B0530E7006708AF00E72BE0
:1007B800E72BAF1FE02BE12BE72B0630E70067089C
:1007C800AF00E72BE72BA901EA2BEA2B2F08E7005C
:1007D80003300310E70DFF3E031DED2B0310670DDB
:1007E8002E04E8006808F60001300A168A11A925C7
:1007F8000A128A11362D7B03031D032C042C1D2C91
:10080800013083120313E7006708AE0706302F068E
:10081800031D0F2C102C122CAE011B2C2E08803A15
:10082800763E031C182C192C1B2CAE011B2CFB012B
:100838003D2C831203132903031D232C242C3D2C48
:10084800FF30E7006708AE0706302F06031D2D2C82
:100858002E2C302CAE013A2CAE1F332C342C3A2CD3
:100868000930E7006708AE003A2C3A2CA9013D2C64
:100878003D2C2F08E70003300310E70DFF3E031D52
:10088800402C0310670D2E04E8006808F6000130BC
:100898000A168A11A9250A128A11362D7B03031D0F
:1008A800562C572C792C013083120313E700670864
:1008B800AD072C08803A7F3E031C632C642C6E2CF9
:1008C8002D08803A7A3E031C6A2C6B2C772CAD01DC
:1008D800772C772C2D08803A793E031C742C752CC4
:1008E800772CAD01772CFB01A22C8312031329036B
:1008F800031D7F2C802CA22CFF30E7006708AD0772
:100908002C08803A7F3E031C8A2C8B2C952CAD1F1B
:100918008E2C8F2C9F2C0530E7006708AD009F2C8C
:100928009F2CAD1F982C992C9F2C0630E700670848
:10093800AD009F2C9F2CA901A22CA22C2D08E7000A
:1009480003300310E70DFF3E031DA52C0310670DB0
:100958002C04E8006808F60000300A168A11A92558
:100968000A128A11362D7B03031DBB2CBC2CD52CF7
:10097800013083120313E7006708AC0706302D0621
:10098800031DC72CC82CCA2CAC01D32C2C08803AC8
:10099800763E031CD02CD12CD32CAC01D32CFB01DC
:1009A800F52C831203132903031DDB2CDC2CF52CF7
:1009B800FF30E7006708AC0706302D06031DE52C5D
:1009C800E62CE82CAC01F22CAC1FEB2CEC2CF22C16
:1009D8000930E7006708AC00F22CF22CA901F52CCD
:1009E800F52C2D08E70003300310E70DFF3E031D2B
:1009F800F82C0310670D2C04E8006808F600003096
:100A08000A168A11A9250A128A11362D362D831243
:100A180003132A08003A03198128013A0319C22846
:100A2800033A03190329013A03196629073A0319F6
:100A3800C729013A03192C2A033A03198D2A013AC6
:100A48000319D42A0F3A0319372B013A03199A2BA1
:100A5800033A0319FF2B013A0319522C073A0319D9
:100A6800B72C362D0A128A1512260A128A116C2FF3
:100A78000A128A15BC230A128A110A168A11B5238A
:100A88000A128A110A128A153D250A128A114E3055
:100A9800F2000030F3000A168A1154250A128A114E
:100AA800023083120313E7006708E0006E30E100AC
:100AB8008B30E2002A08073E433E84008313000877
:100AC8000A168A1108270A128A116230F2000030C9
:100AD800F3000A168A1154250A128A112D2F7B0356
:100AE800031D772D782D9A2D013083120313E7000B
:100AF8006708BE073D08803A7B3E031C842D852D80
:100B08008F2D3E08803A7E3E031C8B2D8C2D982D10
:100B1800BE01982D982D3E08803A7D3E031C952DE8
:100B2800962D982DBE01982DFB01C12D831203131C
:100B38002903031DA02DA12DC12DFF30E700670853
:100B4800BE073D08803A7B3E031CAB2DAC2DB42D6F
:100B5800BE1FAF2DB02DBE2DBE01BE0ABE2DBE2DAF
:100B6800BE1FB72DB82DBE2D0230E7006708BE00A6
:100B7800BE2DBE2DA901C12DC12D3E08E700670875
:100B8800DC00532F7B03031DCA2DCB2DEA2D01302A
:100B9800E7006708BD0702303E06031DD42DD52D9A
:100BA800DF2D3D08803A7B3E031CDB2DDC2DE82D34
:100BB800BD01E82DE82D3D08803A763E031CE52D61
:100BC800E62DE82DBD01E82DFB01102E2903031D9C
:100BD800EE2DEF2D102EFF30E7006708BD0702301D
:100BE8003E06031DF82DF92D032EBD1FFC2DFD2DEE
:100BF8000D2E0430E7006708BD000D2E0D2EBD1F19
:100C0800062E072E0D2E0930E7006708BD000D2EB1
:100C18000D2EA901102E102E3D08E7006708DB00F5
:100C2800532F7B03031D192E1A2E3A2E0130E7008D
:100C38006708BC073B08803A7F3E031C242E252EFC
:100C48002F2E3C08803A7A3E031C2B2E2C2E382E51
:100C5800BC01382E382E3C08803A793E031C352ECC
:100C6800362E382EBC01382EFB01612E2903031DB8
:100C78003E2E3F2E612EFF30E7006708BC073B0879
:100C8800803A7F3E031C492E4A2E542EBC1F4D2EFF
:100C98004E2E5E2E0530E7006708BC005E2E5E2EE5
:100CA800BC1F572E582E5E2E0630E7006708BC0082
:100CB8005E2E5E2EA901612E612E3C08E7006708B2
:100CC800DA00532F7B03031D6A2E6B2E822E013010
:100CD800E7006708BB0706303C06031D742E752E17
:100CE800772EBB01802E3B08803A763E031C7D2E72
:100CF8007E2E802EBB01802EFB01A02E2903031D12
:100D0800862E872EA02EFF30E7006708BB07063027
:100D18003C06031D902E912E932EBB019D2EBB1FCA
:100D2800962E972E9D2E0930E7006708BB009D2E52
:100D38009D2EA901A02EA02E3B08E7006708D90028
:100D4800532F7B03031DA92EAA2ECA2E0130E700BC
:100D58006708BA073908803A7F3E031CB42EB52EBF
:100D6800BF2E3A08803A7A3E031CBB2EBC2EC82EF2
:100D7800BA01C82EC82E3A08803A793E031CC52EFF
:100D8800C62EC82EBA01C82EFB01F12E2903031D59
:100D9800CE2ECF2EF12EFF30E7006708BA073B08AA
:100DA800803A7F3E031CD92EDA2EE42EBA1FDD2EA0
:100DB800DE2EEE2E0530E7006708BA00EE2EEE2E86
:100DC800BA1FE72EE82EEE2E0630E7006708BA00B5
:100DD800EE2EEE2EA901F12EF12E3A08E700670853
:100DE800D800532F7B03031DFA2EFB2E122F013040
:100DF800E7006708B90706303A06031D042F052FD8
:100E0800072FB901102F3908803A763E031C0D2FA1
:100E18000E2F102FB901102FFB01272F2903031DB7
:100E2800162F172F272FFF30E7006708B907B91FBC
:100E38001E2F1F2F242F0930E7006708B900242F21
:100E4800A901272F272F3908E7006708D700532F54
:100E5800532F0730831203132A07E700E80103180A
:100E6800E80AAA1F382FE803831203136808003A18
:100E780003193F2F532F6708073A0319732D0F3AA9
:100E88000319C62D013A0319152E033A0319662EC4
:100E9800013A0319A52E073A0319F62E532F0A16FD
:100EA8008A11B5230A128A110A128A153D250A12D7
:100EB8008A116C2F6C2F831203132B08003A031925
:100EC8003928013A03194E28033A03193C2D6C2F8F
:100ED8000800F5008312031387110000831203131F
:100EE800071200008312031387150000F801083069
:100EF8007802031C802F812F832FA12FA12F750823
:100F08000139F200F20EF20D83120313070872067C
:100F1800DF39720687000310F50C071600008312EC
:100F28000313071200000130F2007208F8070830B6
:100F38007802031CA02FA12F832F00008316031310
:100F48008716F80108307802031CAB2FAC2FAE2FA0
:100F5800D42FD42F003083120313871A0130F600E0
:100F68007608F20007300310F20DFF3E031DB72F7D
:100F78007708F3000310730C7204F4007408F70088
:100F88000716000083120313071200000130F20055
:100F98007208F80708307802031CD32FD42FAE2F1D
:100FA800831203138711000083160313871277082F
:100FB800DD2F080083120313861BE32FE42FFF2F76
:100FC8000A30F2000030F3000A168A1154250A127A
:100FD8008A1183120313861BF22FF32FFF2FF52F8D
:100FE800F52F861FF82FF92FF52FFA2F0430FA0660
:100FF800FF2FFF2FFF2F0800FF1B0A2883137F18DE
:1010080083170008840A0319FF0A08007F087F393C
:101018008A000408840A0319FF0A82000034023493
:101028008D3402347D340234763406347D3402340F
:10103800763404345E3404347D3404347D3404342A
:101048007D340434BC3404348D3406349E34023484
:101058008D340434763404349E3404349E34043499
:101068009E340434BC340434B2340634BC34023400
:10107800B234023476340634BC340434BC34043418
:10108800BC340434763404347D340634A734023452
:10109800A73404347D3404347D3404347D3404347A
:1010A800003404348D3402347D340234763406340A
:1010B8007D340234763404345E3404347D340434AC
:1010C8007D3404347D340434BC340234BC340234FA
:1010D8008D3406349E3402348D340434763404342A
:1010E8009E3404349E3404349E340434BC340434B2
:1010F800B2340434763402347D3402347D3404341A
:1011080076340434693404345E3402347634043476
:101118007634043400340234763402347D340234B4
:101128008D3404347D340434953404348D340434DB
:101138008D3404340034043476340234693402348F
:101148005E340534693403345E340334583403346C
:101158004F3402346934043469340434693404344F
:101168009E34043469340134763401347D340134D6
:1011780076340134763404347634023469340434F1
:101188005E3402345E3404345E3404345E34043431
:101198005E3404348D3402347D34023476340434BD
:1011A8007D340234763402346934043476340634B7
:1011B8009E3402349E3404349E3404345834043447
:1011C8005E34043469340434763404345E340434CC
:1011D8005E3404345E3404348D3402347D34023495
:1011E800763406347D340234763404345E34043480
:1011F8007D3404347D3404347D340434BC34043404
:101208008D3406349E3402348D34043476340434F8
:101218009E3404349E3404349E340434BC34043480
:10122800B2340434763402347D3402347D340434E8
:1012380076340434693404345E3402347634023447
:101248007634043476340434763402347D3402340B
:101258008D3404347D340434953404348D340434AA
:101268008D3404348D3404348D340434FF34003424
:1012780002349E3402345E340234693402347634E3
:1012880002349E340434003402349E3401349E34D3
:1012980001349E3402345E340234693402347634C4
:1012A80002348D340434003404348D340234583418
:1012B80002345E340234693402347D340434003438
:1012C80004344F3402344F3402345834023469340D
:1012D80002345E34043476340234003402349E34EA
:1012E80002345E34023469340234763402349E3473
:1012F8000434003404349E3402345E3402346934D5
:101308000234763402349E340434003402349E3479
:1013180002348D340234583402345E340234693471
:1013280002344F3402344F3402344F3402344F34D1
:101338000234463402344F340234583402346934A7
:10134800023476340634003402345E3402345E34B7
:1013580002345E3404345E3402345E3402345E3463
:1013680004345E3402344F3402347634033469343E
:1013780001345E34063400340234583402345834AC
:1013880002345834033458340134583402345E3447
:1013980002345E3402345E3401345E3401345E3427
:1013A80002346934023469340234763402346934DC
:1013B80004344F3404345E3402345E3402345E3410
:1013C80004345E3402345E3402345E3404345E34F1
:1013D80002344F34023476340334693401345E34D1
:1013E8000634003402345834023458340234583441
:1013F800033458340134583402345E3402345E34D1
:1014080002345E3401345E3401344F3402344F34D4
:1014180002345834023469340234763406340034E1
:101428000234FF34003402345E3403346934013446
:1014380076340234693402345E3402345E34023461
:101448005E3402345E34023469340234693402345E
:1014580069340234693402345E3402344F3402345D
:101468004F3402344F3402345E3403346934013467
:1014780076340234693402345E3402345E34023421
:101488005E34023476340234693402346934023406
:101498005E340234693402347634023476340234E9
:1014A80076340234763402343E340334463401341C
:1014B8004F340234463402343E3402343E3402346B
:1014C8003E3402343E3402344F3402344F34023452
:1014D8004F3402344F3402343E340234343402344C
:1014E8003E3402343E3402343E340334463401344C
:1014F8004F340234463402343E3402343E3402342B
:101508003E3402344F340234463402344634023412
:101518003E340234463402344F3402344F340234F9
:101528004F3402344F340234FF34003402347634FA
:101538000234763402344F3402344F3402344634A1
:101548000234463402344F340434583402345834A4
:1015580002345E3402345E3402346934023469344D
:10156800023476340434FF3420348B3400340034AD
:101578000A348B340034003415348B34003400348E
:101588002B348B34003400348034823484348634F1
:1015980088348A348C34813483348534873489346C
:1015A8008B348D34553441345234543420344D34D2
:1015B8006F34643475346C346534203449346E3493
:1015C80069347434693461346C3469347A34653418
:1015D8006434203461346E346434203461346334C8
:1015E800743469347634653420340D34003453341B
:1015F80045345434543449344E3447342D342D341E
:1016080041344C34413452344D3400344C34693410
:10161800743474346C3465344C3461346D346234ED
:1016280000344A3469346E3467346C346534423477
:1016380065346C346C3400344C3469347434743428
:101648006C34653453347434613472340034533434
:101658006B34793420344334693474347934003445
:101668004D34553453344934433400344E345534AE
:101678004D343A3400345734653464342E340034ED
:101688005434753465342E34003446347234693435
:101698002E3400344D346F346E342E3400345334C9
:1016A80075346E342E3400345334613474342E342B
:1016B80000345434683475342E340034533454347C
:1016C8004F345034003450344C344134593400349D
:0E16D8005F345F345F34003432343034003419
:1016E800831203132C08390603197B2B7C2B7F2BC1
:1016F800BB2BBB2BBB2B2D083A060319842B852B40
:10170800882BBB2BBB2BBB2B2E083B0603198D2B21
:101718008E2B912BBB2BBB2BBB2B2F083C06031905
:10172800962B972B9A2BBB2BBB2BBB2B30083D063C
:1017380003199F2BA02BA32BBB2BBB2BBB2B310837
:101748003E060319A82BA92BAC2BBB2BBB2BBB2B01
:101758003230DD000030DE000A168A11EC230A124E
:101768008A15BB2BBB2BBB2BBB2BBB2BBB2B080066
:101778007A1CBF2BC02B162C01300A168A1108269A
:101788000A128A1583120313AA01FA1CCC2BCD2B3B
:10179800EE2BE001E00A3430E1008B30E200033048
:1017A8000A168A1108270A128A15023083120313AF
:1017B800E6006608E0003A30E1008B30E2000030D5
:1017C8000A168A1108270A128A1583120313A70119
:1017D800A801142C2B080319F22BF32BF92B2B033C
:1017E800031DF72BF82BFF2BF92B0A168A11442619
:1017F8000A128A15142C0A168A11C6240A128A1586
:1018080083120313E001E00AFB30E1008A30E200B2
:1018180001300A168A1108270A128A15142C142C6A
:101828007A10162C0800023083120313E5006508AD
:10183800E0004208313EE6006608E10004300A167E
:101848008A116E230A128A15023083120313E500E7
:101858006508E0004208E60001300310E60DFF3E8F
:10186800031D312C0310660DB83E84008A3003181E
:10187800013EFF000A128A1500200A128A15E700A5
:101888000A128A1500200A128A15E8006708E10082
:101898006808E20006300A168A1108270A128A1513
:1018A8007A1D572C582C672C83120313E001E00A89
:1018B8006730E1008B30E2000A300A168A110827E7
:1018C8000A128A15762C83120313E001E00A6230AB
:1018D800E1008B30E2000A300A168A1108270A1242
:1018E8008A15762C0800F400831203138711000070
:1018F80083120313071200008312031387150000D5
:10190800F50108307502031C8A2C8B2C8D2CAC2C0D
:10191800AC2C74080139F300F30EF30D8312031392
:1019280007087306DF39730687000310F40C0716DF
:10193800000083120313071200000130F30073083C
:10194800F50708307502031CAA2CAB2C8D2CAC2C87
:10195800F50108307502031CB22CB32CB52CD32C1E
:10196800D32C72080139F300F30EF30D831203131D
:1019780007087306DF39730687000310F20C071691
:10198800000083120313071200000130F3007308EC
:10199800F50708307502031CD22CD32CB52C831202
:1019A80003138711000008000A168A1129240A1255
:1019B8008A150A168A11B6220A128A150A168A1177
:1019C800AF220A128A150A168A11BE260A128A1529
:1019D8000A168A11E5220A128A150A168A1148245B
:1019E8000A128A150A168A1101230A128A150A167A
:1019F8008A11CD220A128A150A168A11AA220A12F7
:101A08008A150A168A1122230A128A150A168A11B9
:101A1800BD220A128A150A168A1167240A128A1523
:101A2800FA18172D182D232D0A128A1574230A1255
:101A38008A150A128A1138200A128A150F2D0A12DD
:101A48008A15BC230A128A150A128A1517240A1243
:101A58008A157A1D302D312D0F2D0A128A15F82678
:101A68000A128A150F2D0F2D0F2D0F2D0A128A110C
:101A78000C28023083120313E4006408E0003E08D7
:101A8800303EE5006508E10006300A168A116E232B
:101A98000A128A15023083120313E4006408E00076
:101AA8003D08303EE5006508E10007300A168A1156
:101AB8006E230A128A15023083120313E4006408A5
:101AC800E0003C08303EE5006508E10009300A16F0
:101AD8008A116E230A128A15023083120313E40056
:101AE8006408E0003B08303EE5006508E1000A3084
:101AF8000A168A116E230A128A15023083120313FA
:101B0800E4006408E0003A08303EE5006508E100BA
:101B18000C300A168A116E230A128A1502308312B3
:101B28000313E4006408E0003908303EE500650866
:101B3800E1000D300A168A116E230A128A15080070
:101B4800831203132608F20004300310F20CFF3E40
:101B5800031DA92D7208F3007308B80026080F3971
:101B6800F2007208B70025080F39F2007208B200B7
:101B78002408F20004300310F20CFF3E031DBF2DB1
:101B88007208F3007308B60024080F39F2007208CF
:101B9800B5002308F20004300310F20CFF3E031DC9
:101BA800D02D7208F3007308B40023080F39F2002F
:101BB8007208B3002208F20004300310F20CFF3E52
:101BC800031DE12D7208F3007308B10022080F39D4
:101BD800F2007208B0002108F20004300310F20C81
:101BE800FF3E031DF22D7208F3007308AF002108B1
:101BF8000F39F2007208AE002008F200043003101A
:101C0800F20CFF3E031D032E7208F3007308AD00AB
:101C180020080F39F2007208AC0008008312031381
:101C2800E001E00A7030E1008B30E20001300A1672
:101C38008A1108270A128A1583120313E001E00AA1
:101C48003808303EE5006508E10003300A168A11BD
:101C58006E230A128A1583120313E001E00A37087B
:101C6800303EE5006508E10004300A168A116E234B
:101C78000A128A1583120313E001E00A3608303E7F
:101C8800E5006508E10006300A168A116E230A127B
:101C98008A1583120313E001E00A3508303EE50097
:101CA8006508E10007300A168A116E230A128A15A0
:101CB80083120313E001E00A3408303EE5006508AA
:101CC800E10009300A168A116E230A128A15831256
:101CD8000313E001E00A3308303EE5006508E1003F
:101CE8000A300A168A116E230A128A158312031300
:101CF800E001E00A3208E5006507FE3EA03E8400E8
:101D080083130008E100840A00088403E2000C3011
:101D18000A168A1108270A128A1502308312031339
:101D2800E5006508E0003108303EE6006608E1009D
:101D380006300A168A116E230A128A150230831297
:101D48000313E5006508E0003008303EE600660849
:101D5800E10007300A168A116E230A128A1502302A
:101D680083120313E5006508E0002F08303EE60003
:101D78006608E10009300A168A116E230A128A15CC
:101D8800023083120313E5006508E0002E08303E98
:101D9800E6006608E1000A300A168A116E230A1264
:101DA8008A15023083120313E5006508E0002D0848
:101DB800303EE6006608E1000C300A168A116E23F0
:101DC8000A128A15023083120313E5006508E00041
:101DD8002C08303EE6006608E1000D300A168A112C
:101DE8006E230A128A1508007A19FB2EFC2EFE2E85
:101DF800FF2FFF2F831203134208031D042F052F03
:101E08002A2F2708993E84008A300318013EFF00D4
:101E18000A128A1500200A128A15F9007908C000EA
:101E28000130A7070318A80A0030A8072708993E19
:101E380084008A300318013EFF000A128A15002028
:101E48000A128A15F9007908BF00AF2F4203031D53
:101E58002E2F2F2F542F2708163E84008A30031860
:101E6800013EFF000A128A1500200A128A15F9009D
:101E78007908C0000130A7070318A80A0030A8078E
:101E88002708163E84008A300318013EFF000A1214
:101E98008A1500200A128A15F9007908BF00AF2FA9
:101EA80002304206031D592F5A2F7F2F27083B3E29
:101EB800840089300318013EFF000A128A150020A9
:101EC8000A128A15F9007908C0000130A70703181B
:101ED800A80A0030A80727083B3E84008930031869
:101EE800013EFF000A128A1500200A128A15F9001D
:101EF8007908BF00AF2F03304206031D842F852FBA
:101F0800AF2F88302807FF001230270784000318F6
:101F1800FF0A0A128A1500200A128A15F9007908A0
:101F2800C0000130A7070318A80A0030A8078830A6
:101F38002807FF001230270784000318FF0A0A1237
:101F48008A1500200A128A15F9007908BF00AF2FF8
:101F5800AF2FAF2FAF2F4008031DB32FB42FCC2FB7
:101F6800831603130715831203133F080A168A11F1
:101F7800E7240A128A158316031307110130831206
:101F88000313A7070318A80A0030A807FF2FFF2F7D
:101F9800400A031DD02FD12FE12F0130F900790815
:101FA800C2074208803A7C3E031CDB2FDC2FDD2F62
:101FB800C201A701A801FF2FFF2F831603130711E2
:101FC8008312031340080A168A1181260A128A15F9
:101FD800831203133F080A168A11E7240A128A1586
:101FE800013083120313A7070318A80A0030A807B3
:081FF80083160313071508000E
:102554007A1183120313C2010800C730F200720813
:1025640083160313870508008B170B170B168316A6
:102574000313011308000730831203139200831618
:1025840003130711080064008001840A0406031978
:1025940000340406C62AFC30F200720883160313C2
:1025A400870583120313071087100800F200000048
:1025B400DE2A0130F202DE2A7208031DE22AE32A2F
:1025C400DB2AE42A0800F830F200720883160313A9
:1025D400890583160317880189018316031388016B
:1025E40008004E348B3444348B343F348B345D34A4
:1025F4008B3449348B3458348B3453348B3401301A
:102604000A168A1108260A168A110A30F2000030C6
:10261400F3000A168A1154250A168A1108000A16AC
:102624008A1184230A168A11F4007408F500F51B34
:102634001C2B1D2B112B212B212B112B112B0800B3
:102644008316031788018901831603138113FD3050
:10265400F2007208860483120313AB01AA017A14F0
:10266400FA100800F30083120313891009140911E6
:1026740073088800891408300A168A11D8220A16A9
:102684008A1183120313891008007E088A007F08C8
:1026940082000A168A1147230A168A118000840AC6
:1026A40004087D0603190034FF0A0319FE0A4B2BA4
:1026B400F2007208831203139900602B0C1E632B23
:1026C400642B602B662B662B83160313981C6B2BD1
:1026D4006C2B662B6D2B080083120313E300600838
:1026E400E2006208F90063080A168A11D0230A1668
:1026F4008A118312031361080A168A1134230A16F5
:102704008A110800FF308312031388000910091589
:1027140000008312031389140808F2007208F300FE
:1027240089100000831203130911880173089A2B7E
:102734000800033404340634073409340A340E34EC
:102744000634073409340A340C340D3455345934FE
:102754002334153403340734203400340134003472
:10276400003400340034831203135C08F20072084E
:10277400BE005B08F2007208BD005A08F20072083D
:10278400BC005908F2007208BB005808F200720835
:10279400BA005708F2007208B90008008312031344
:1027A400DF007903031DD72BD82BDE2B5F08803E77
:1027B400DD005D08DE00E42B5F08C03EDD005D083F
:1027C400DE00E42B5E0880380A168A1108260A16F1
:1027D4008A11080083160313071183120313871445
:1027E40016300A168A1181260A168A1183120313D7
:1027F4005E08F3005D08F2000A168A1154250A16D1
:102804008A11831203138710831603130715080014
:102814008B1C0D2C0E2C222C8B10031083120313F3
:10282400071C03140318172C1B2C831203130714FF
:102834001E2C8312031307100230FA067A14222C7A
:1028440071088A00700E8300FE0E7E0E0900831646
:1028540003130713871783160317871183160313AC
:1028640018139816181218151930990083120313A7
:102874009817181318169811D630F3008A30F400FC
:102884000A168A112C250A168A11080001300A1624
:102894008A1108260A168A1138300A168A1108265F
:1028A4000A168A110C300A168A1108260A168A1189
:1028B40080300A168A1108260A168A1101300A166F
:1028C4008A1108260A168A1108000A168A117D251B
:1028D4000A168A110A168A1186240A168A110A16F9
:1028E4008A11A6240A168A110A168A1152270A1670
:1028F4008A110A168A11A9270A168A110A128A113C
:10290400DE270A168A1108008312031386198B2CFA
:102914008C2CA52C0A30F2000030F3000A168A1120
:1029240054250A168A118312031386199A2C9B2C98
:10293400A52C9D2C9D2C861DA02CA12C9D2CFB012F
:10294400FB0AA52CA52C080083120313061AAB2C32
:10295400AC2CC52C0A30F2000030F3000A168A11A0
:1029640054250A168A1183120313061ABA2CBB2C97
:10297400C52CBD2CBD2C061EC02CC12CBD2CA90100
:10298400A90AC52CC52C0800023083120313E400E5
:102994006408E0003A30E5006508E10008300A16F2
:1029A4008A116E230A168A11023083120313E4007B
:1029B4006408E0003A30E5006508E1000B300A16CF
:1029C4008A116E230A168A11080083120313DD008C
:1029D4005D08F8007808DE005E08031DF22CF32C75
:1029E400F52C082D082DAA30F2000030F3000A1649
:1029F4008A1154250A168A11013083120313DE0248
:102A04005E08031D062D072DF52C082D0800F20085
:102A1400F21B0D2D0E2D192D7208803A793E0318E4
:102A2400142D152D192D01302B2D2B2D2B2D720826
:102A3400803A793E031C1F2D202D2B2D7208803ADD
:102A4400733E0318262D272D2B2D02302B2D2B2DD5
:102A54002B2D0800422D740883120313FF00730802
:102A640084000A128A1500200A168A110A168A118D
:102A74005A230A168A110130F3070318F40A422D67
:102A8400740883120313FF00730884000A128A1562
:102A940000200A168A11003A031D512D522D2D2DA6
:102AA400532D0800F501F601712D6C30F400740803
:102AB400F7007708031D5F2D602D622D6B2D6B2DA4
:102AC40000000130F7027708031D692D6A2D622D7D
:102AD4006B2D0130F5070318F60A0030F60773086A
:102AE4007602031D772D72087502031C7A2D7B2D47
:102AF400572D7C2D0800831203130619822D832D74
:102B0400A82D0A30F2000030F3000A168A11542569
:102B14000A168A11831203130619912D922DA82DDA
:102B2400942D942D061D972D982D942D7A140130F3
:102B3400F8007808AB0703302B02031CA22DA32D49
:102B4400A82DAB01A82DA82DA82DA82D0800F800AC
:102B54008312031387110712F2018E300A128A15A9
:102B640077240A168A117608F7007708F2007808A5
:102B7400C83E84008A300318013E83120313FF0009
:102B84000A128A1500200A168A110A128A15772455
:102B94000A168A118030F7007708F2008E300A1284
:102BA4008A1577240A168A11080083120313DD019B
:102BB40007305D02031CDF2DE02DE22D072E072ECA
:102BC4005D08CF3E84008A300318013EFF000A12DC
:102BD4008A1500200A168A110A128A116D270A160C
:102BE4008A11F900831203135D08203E84007908DA
:102BF400831380000130F9007908DD0707305D0296
:102C0400031C052E062EE22D072E0800F800831261
:102C140003138910091009117808880008300A166E
:102C24008A11D8220A168A1108300A168A11D82263
:102C34000A168A1108300A168A11D8220A168A112D
:102C440008300A168A11D8220A168A1108300A1680
:102C54008A11D8220A168A1108300A168A11D82233
:102C64000A168A118312031389140130F20000300A
:102C7400F3000A168A1154250A168A1183120313C3
:102C84008910080083120313E001E00A2D30E400E8
:102C94006408E10005300A168A116E230A168A11A7
:102CA40083120313E001E00A2D30E4006408E1001C
:102CB40008300A168A116E230A168A11023083120A
:102CC4000313E4006408E0003A30E5006508E1001D
:102CD40008300A168A116E230A168A1102308312EA
:102CE4000313E4006408E0003A30E5006508E100FD
:102CF4000B300A168A116E230A168A110800F60090
:102D040076088316031392001208F200F3010310ED
:102D1400F20DF30D7208023EF40073080318013E2D
:102D2400003EF5007408F7007508F8007808F30011
:102D34007708F200730DF30CF20C730DF30CF20C24
:102D440072088312031395007808F3007708F200E1
:102D5400730DF30CF20C7208F400F40EF40D170862
:102D64007406DF3974069700770C031C17120318D6
:102D740017169715171508008312031387110712E6
:102D8400F2018E300A128A1577240A168A11F70185
:102D940007307702031CCF2ED02ED22EF82EF82E19
:102DA4007708503E840083130008F6007608F2008A
:102DB4007708C83E84008A300318013E8312031347
:102DC400FF000A128A1500200A168A110A128A15AF
:102DD40077240A168A110130F6007608F7070730BF
:102DE4007702031CF62EF72ED22EF82E8030F60032
:102DF4007608F2008E300A128A1577240A168A1190
:102E04000A168A11B5230A168A11080083120313BD
:102E1400E4000A168A1111230A168A118312031375
:102E24006008E3006308F90064080A168A11D023D5
:102E34000A168A11402F831203136208FF006108E7
:102E440084000A128A1500200A168A118800620872
:102E5400FF00610884000A128A1500200A168A11EC
:102E64000A168A1134230A168A11013083120313B5
:102E7400E1070318E20A0030E207402F831203132C
:102E84006208FF00610884000A128A1500200A16ED
:102E94008A11003A031D4F2F502F1D2F512F080068
:102EA40083120313861A572F582FA82F0A30F200C3
:102EB4000030F3000A168A1154250A168A11831267
:102EC4000313861A662F672FA82F692F692F861E72
:102ED4006C2F6D2F692FFA1C702F712F802FFF30EC
:102EE400F8007808C207C21F782F792F7E2F03308D
:102EF400F8007808C2007E2F7A14A82FFF30F8005B
:102F04007808AA072B03031D882F892F932FAA1F44
:102F14008C2F8D2FA82F0C30F8007808AA00A82F2A
:102F2400A82F02302B06031D982F992FA82FAA1F14
:102F34009C2F9D2FA82F0530F8007808AA00A82FF1
:102F4400A82FA82FA82FA82FA82FA82F08008312D6
:102F54000313061BAE2FAF2FFF2F0A30F2000030F1
:102F6400F3000A168A1154250A168A1183120313D0
:102F7400061BBD2FBE2FFF2FC02FC02F061FC32F30
:102F8400C42FC02FFA1CC72FC82FD72F0130F80029
:102F94007808C2074208803A7C3E031CD22FD32F04
:102FA400D52FC201D52F7A14FF2F0130F8007808ED
:102FB400AA072B03031DDF2FE02FEA2F2A08803AEC
:102FC400733E031CE62FE72FFF2FAA01FF2FFF2FCD
:102FD40002302B06031DEF2FF02FFF2F2A08803A13
:102FE4007A3E031CF62FF72FFF2FAA01FF2FFF2F86
:0C2FF400FF2FFF2FFF2FFF2FFF2F0800E3
:04400E00F2FFFFFFBF
:00000001FF
